:100000000C942A000C9402010C9447000C944700B5
:100010000C9447000C9447000C9447000C94190171
:100020000C9447000C9447000C9447000C94470034
:100030000C9447000C9447000C9447000C94470024
:100040000C9447000C9447000C9447000C94470014
:100050000C94470011241FBECFE5D8E0DEBFCDBF12
:1000600010E0A0E6B0E0E4EFF2E002C005900D92EF
:10007000A436B107D9F710E0A4E6B0E001C01D92A4
:10008000A836B107E1F70E948C000C9478010C941B
:10009000000010BC8CE089B9599A8AB188698AB984
:1000A00080B5866880BD08955D9BFECF8CB90895AC
:1000B0005F9BFECF8CB10895CF93DF93EC018881D5
:1000C000882331F021960E94540089918823D9F722
:1000D000DF91CF910895EF92FF920F931F93CF93EB
:1000E000DF937C01D62FC0E087010C0F111D0E9409
:1000F0005800F80180838D1711F0CF5FF5CFF7011D
:10010000EC0FF11D10828E2D9F2DDF91CF911F914D
:100110000F91FF90EF900895CF93DF93CDB7DEB7A7
:100120002E970FB6F894DEBF0FBECDBF0E944900D8
:1001300085B7826085BF8BB780648BBF8EB58D60BD
:100140008EBD80ED93E09BBD8ABD89B7806189BF7C
:100150007894A098B898EE24FF24E394AA24BB24B2
:100160000F2EF0E6CF2EF0E0DF2EF02D0F2EF2E670
:100170008F2EF0E09F2EF02D26B313B38E2D9F2DE2
:1001800020FD02C08A2D9B2DBE01655F7F4F4AE096
:1001900050E00E9433018E2D9F2D10FD02C08A2D4C
:1001A0009B2DBE01635F7F4F4AE050E00E94330108
:1001B0008091640090916500BE016F5F7F4F4AE0BF
:1001C00050E00E943301CE0101960E945C00C601FE
:1001D0000E945C00CE010B960E945C00C6010E944A
:1001E0005C00CE010D960E945C00C4010E945C0080
:1001F0008FE39DE0A3E081509040A040E1F700C074
:100200000000BACF1F920F920FB60F9211248F9356
:100210009F9380916600909167000196909367008C
:10022000809366009F918F910F900FBE0F901F904B
:1002300018951F920F920FB60F9211248F939F93D0
:1002400080916600909167009093650080936400B0
:1002500010926700109266009F918F910F900FBED1
:100260000F901F901895FB019F01E8944230C4F055
:100270004532B4F44A3029F497FB1EF490958195E9
:100280009F4F642F77270E946401805D8A330CF0B2
:10029000895D8193CB010097A1F716F45DE251933C
:1002A0001082C9010C945401DC01FC01672F71918B
:1002B0007723E1F7329704C07C916D93708362914C
:1002C000AE17BF07C8F30895AA1BBB1B51E107C0B7
:1002D000AA1FBB1FA617B70710F0A61BB70B881FD6
:1002E000991F5A95A9F780959095BC01CD01089565
:0402F000F894FFCFB0
:0402F40041000A00BB
:00000001FF
