:100000000C942A000C9447000C9447000C94470071
:100010000C9447000C9447000C9447000C94470044
:100020000C9447000C9447000C9447000C94470034
:100030000C9447000C9447000C9447000C94470024
:100040000C9447000C9447000C9447000C94470014
:100050000C94470011241FBECFE5D8E0DEBFCDBF12
:1000600010E0A0E6B0E0E8EAF9E002C005900D92E9
:10007000A236B107D9F710E0A2E6B0E001C01D92A8
:10008000A236B107E1F70E9413020C94D2040C943B
:10009000000080E487B987E886B9089597B1907E1B
:1000A00097B997B18770982B97B9369A349BFECF42
:1000B000349A84B195B1089510BC8CE089B9599AED
:1000C0008AB188698AB980B5866880BD08955D9BCC
:1000D000FECF8CB908955F9BFECF8CB10895CF936E
:1000E000DF93EC018881882331F021960E9467001C
:1000F00089918823D9F7DF91CF910895EF92FF92EC
:100100000F931F93CF93DF937C01D62FC0E087011D
:100110000C0F111D0E946B00F80180838D1711F0E8
:10012000CF5FF5CFF701EC0FF11D10828E2D9F2DC3
:10013000DF91CF911F910F91FF90EF900895CF9293
:10014000DF92EF92FF92CF93DF938FEF84BB84E037
:100150000E944E00EC0185E00E944E00BC01660F3B
:10016000771F660F771F680F791F772314F461508C
:100170007C4F672F770F770B65956595882777FDFF
:100180008095982F0E947C036B017C01BE0188271B
:1001900077FD8095982F0E947C0320E030E040EAB4
:1001A00050E40E94080420E030E040E85AE30E9456
:1001B00008049B01AC010E9482029B01AC01C701B3
:1001C000B6010E94810290582BE330E74AE950E4DF
:1001D0000E94E60226E636E74DE955EC0E94080447
:1001E00023E333E14BE953E40E94E60220E030E0F0
:1001F00040EE50E40E9482020E944E03862F972F09
:10020000DF91CF91FF90EF90DF90CF900895CF9244
:10021000DF92EF92FF920E94570283EC99E00197E0
:10022000F1F700C000000E9463026B017C0183ECC7
:1002300099E00197F1F700C000000E946302DC0121
:10024000CB01C80ED91EEA1EFB1E83EC99E0019774
:10025000F1F700C000000E946302DC01CB01C80E70
:10026000D91EEA1EFB1EC701B6010E947A0323E3D2
:1002700033E343E550E40E94E6020E944E03FF9000
:10028000EF90DF90CF900895CF92DF92EF92FF92A0
:100290000F931F930E945A0283EC99E00197F1F7A4
:1002A00000C000000E9463026B017C0183EC99E0B6
:1002B0000197F1F700C000000E946302DC01CB014E
:1002C000C80ED91EEA1EFB1E83EC99E00197F1F7D8
:1002D00000C000000E946302DC01CB01C80ED91EE1
:1002E000EA1EFB1EC701B60123E030E040E050E00B
:1002F0000E946B04622F732F842F952F1F910F91F3
:10030000FF90EF90DF90CF900895CF92DF92EF9221
:10031000FF920E945D0283EC99E00197F1F700C023
:1003200000000E9463026B017C0183EC99E001975D
:10033000F1F700C000000E946302DC01CB01C80E8F
:10034000D91EEA1EFB1E83EC99E00197F1F700C06D
:1003500000000E946302DC01CB01C80ED91EEA1E18
:10036000FB1EC701B6010E947A0326E636E646E880
:1003700050E40E94E6020E944E03FF90EF90DF904F
:10038000CF9008954F925F926F927F928F929F923B
:10039000AF92BF92CF92DF92EF92FF928FEF87BB27
:1003A000DB9A0E9407012B013C010E9444016B0172
:1003B0007C010E9485014B015C01DB9A46165706C1
:1003C0006806790650F4C701B6014C145D046E044A
:1003D0007F0450F4C301B20107C0C814D904EA0471
:1003E000FB0410F4C701B601E3EDF0E33197F1F738
:1003F00000C000002AE030E040E050E00E946B04C2
:10040000C501B4010E946B04822F932FFF90EF90DF
:10041000DF90CF90BF90AF909F908F907F906F9024
:100420005F904F900895CF93DF9300D000D00F924C
:10043000CDB7DEB70E945C000E9449000E945302C3
:10044000FF24F3940F2EF0E6CF2EF0E0DF2EF02DF8
:100450000E949F008C010E94C201045F1F4F0B305D
:10046000110510F0F5BA01C015BA8031910514F4E8
:10047000F8BA01C018BABE016F5F7F4F4AE050E082
:100480000E948D04CE0101960E946F00C6010E9459
:100490006F008FE39DE0A3E081509040A040E1F722
:1004A00000C00000D5CFD09AD19AD39A0895D89899
:1004B000D9980895D89AD99A0895D898D99A08952C
:1004C000D89AD9980895CA9902C0CA9BFECFCA99F2
:1004D000FECF1DBC1CBC81E08EBDCA9BFECF1EBCE6
:1004E0006CB57DB580E090E00E947A039B01AC0181
:1004F00060E074E284EF9AE40E94E6020E944E03F8
:1005000008955058BB27AA270ED048C139D130F0E2
:100510003ED120F031F49F3F11F41EF42EC10EF4B1
:10052000E095E7FB24C1E92F4AD180F3BA176207AF
:1005300073078407950718F071F49EF562C10EF4F5
:10054000E0950B2EBA2FA02D0B01B90190010C01E3
:10055000CA01A0011124FF27591B99F0593F50F4FB
:10056000503E68F11A16F040A22F232F342F442753
:10057000585FF3CF469537952795A795F04053954B
:10058000C9F77EF41F16BA0B620B730B840BBAF01B
:100590009150A1F0FF0FBB1F661F771F881FC2F786
:1005A0000EC0BA0F621F731F841F48F4879577959A
:1005B0006795B795F7959E3F08F0B3CF9395880F51
:1005C00008F09927EE0F9795879508950CD0E6C00F
:1005D000DED040F0D5D030F021F45F3F19F0C7C035
:1005E000511110C1CAC0EBD098F39923C9F3552318
:1005F000B1F3951B550BBB27AA2762177307840716
:1006000038F09F5F5F4F220F331F441FAA1FA9F3CB
:1006100033D00E2E3AF0E0E830D091505040E695BD
:10062000001CCAF729D0FE2F27D0660F771F881F1E
:10063000BB1F261737074807AB07B0E809F0BB0B0D
:10064000802DBF01FF2793585F4F2AF09E3F510531
:1006500068F08DC0D7C05F3FECF3983EDCF3869521
:1006600077956795B795F7959F5FC9F7880F911DA7
:100670009695879597F90895E1E0660F771F881F93
:10068000BB1F621773078407BA0720F0621B730B46
:10069000840BBA0BEE1F88F7E095089598D088F088
:1006A0009F5790F0B92F9927B751A0F0D1F0660F5E
:1006B000771F881F991F1AF0BA95C9F712C0B13079
:1006C00081F09FD0B1E008959CC0672F782F8827D4
:1006D000B85F39F0B93FCCF3869577956795B395B8
:1006E000D9F73EF490958095709561957F4F8F4F27
:1006F0009F4F0895E89409C097FB3EF4909580952C
:10070000709561957F4F8F4F9F4F9923A9F0F92FD7
:1007100096E9BB279395F695879577956795B79555
:10072000F111F8CFFAF4BB0F11F460FF1BC06F5F3B
:100730007F4F8F4F9F4F16C0882311F096E911C04D
:10074000772321F09EE8872F762F05C0662371F06E
:1007500096E8862F70E060E02AF09A95660F771F82
:10076000881FDAF7880F9695879597F9089597F976
:100770009F6780E870E060E008959FEF80EC089547
:1007800000240A9416161706180609060895002470
:100790000A9412161306140605060895092E0394EA
:1007A000000C11F4882352F0BB0F40F4BF2B11F45E
:1007B00060FF04C06F5F7F4F8F4F9F4F089557FDBD
:1007C0009058440F551F59F05F3F71F04795880FBF
:1007D00097FB991F61F09F3F79F087950895121656
:1007E00013061406551FF2CF4695F1DF08C0161602
:1007F00017061806991FF1CF8695710561050894B3
:100800000895E894BB2766277727CB0197F90895C9
:100810000BD0C4CFB5DF28F0BADF18F0952309F06C
:10082000A6CFABCF1124EECFCADFA0F3959FD1F3B3
:10083000950F50E0551F629FF001729FBB27F00D8E
:10084000B11D639FAA27F00DB11DAA1F649F6627E3
:10085000B00DA11D661F829F2227B00DA11D621F32
:10086000739FB00DA11D621F839FA00D611D221FEC
:10087000749F3327A00D611D231F849F600D211DD0
:10088000822F762F6A2F11249F5750408AF0E1F073
:1008900088234AF0EE0FFF1FBB1F661F771F881FBC
:1008A00091505040A9F79E3F510570F060CFAACFFC
:1008B0005F3FECF3983EDCF3869577956795B795A7
:1008C000F795E7959F5FC1F7FE2B880F911D9695D1
:1008D000879597F90895A1E21A2EAA1BBB1BFD016B
:1008E0000DC0AA1FBB1FEE1FFF1FA217B307E4070F
:1008F000F50720F0A21BB30BE40BF50B661F771F67
:10090000881F991F1A9469F7609570958095909546
:100910009B01AC01BD01CF010895FB019F01E8944B
:100920004230C4F04532B4F44A3029F497FB1EF447
:10093000909581959F4F642F77270E94BE04805D1C
:100940008A330CF0895D8193CB010097A1F716F4EF
:100950005DE251931082C9010C94AE04DC01FC01EC
:10096000672F71917723E1F7329704C07C916D93E3
:1009700070836291AE17BF07C8F30895AA1BBB1B13
:1009800051E107C0AA1FBB1FA617B70710F0A61B8F
:10099000B70B881F991F5A95A9F780959095BC01B0
:0809A000CD010895F894FFCF8A
:0209A8000A0043
:00000001FF
